:1000000071C000008FC000008CC000008AC00000DA
:1000100088C0000086C0000084C0000082C00000CC
:1000200080C000007EC000007CC000007AC00000DC
:1000300078C0000076C0000074C0000072C00000EC
:1000400070C000006EC000006CC000006AC00000FC
:1000500068C0000066C0000064C0000062C000000C
:1000600060C000005EC000005CC000005AC000001C
:1000700058C0000056C0000054C0000052C000002C
:1000800050C000004EC000004CC000004AC000003C
:1000900048C0000046C0000044C0000042C000004C
:1000A00040C000003EC000003CC000003AC000005C
:1000B00038C0000036C0000034C0000032C000006C
:1000C00030C000002EC000002CC000002AC000007C
:1000D00028C0000026C0000024C0000022C000008C
:1000E00020C0000011241FBECFEFD1E2DEBFCDBF84
:1000F00000E00CBF12E0A0E0B2E0EEE9F5E000E0C5
:100100000BBF02C007900D92A230B107D9F722E0D1
:10011000A2E0B2E001C01D92A830B207E1F7E4D13D
:100120003CC26ECF1F920F920FB60F9211242F93E5
:100130008F939F932FEF89EF90E021508040904064
:10014000E1F700C00000489906C081E090E090937C
:100150000702809306029F918F912F910F900FBEFF
:100160000F901F90189549991EC08FE39CE9019745
:10017000F1F700C00000499B19C0809104029091E2
:1001800005028330910544F4019690930502809313
:10019000040280E090E0089510920502109204029B
:1001A00080E090E0089581E090E0089581E090E0A3
:1001B00008954A9921C08FE39CE90197F1F700C0A7
:1001C00000004A9B1CC0809100029091010288357A
:1001D000924049F48CE291E09093010280930002F6
:1001E00080E090E0089588E592E09093010280938A
:1001F000000280E090E0089581E090E0089581E0C1
:1002000090E00895CF93DF9339C0809106029091DA
:100210000702892BC1F58FEC97E00197F1F700C039
:100220000000A1DF892B79F1C4DF892B61F12196D0
:100230008091000290910102C817D90734F385E13B
:1002400082B9C0E0D0E013C080910602909107020D
:10025000892BC9F48FEC97E00197F1F700C00000FB
:1002600082DF892B81F0A5DF892B69F021968091AF
:10027000000290910102C817D90734F38AE282B9CB
:10028000C0E0D0E0D5CFDF91CF910895EF92FF92FB
:100290000F931F93CF93DF9351C082B121E030E0E1
:1002A0007901002E02C0EE0CFF1C0A94E2F78E29A1
:1002B00082B9C0E0D0E014C080910602909107029C
:1002C000892B09F03EC08FEC97E00197F1F700C051
:1002D000000049DF892BA9F16CDF892B91F1219670
:1002E0008091000290910102C817D9072CF382B1C6
:1002F000E094E822E2B8C0E0D0E013C080910602AA
:1003000090910702892BE9F48FEC97E00197F1F7C0
:1003100000C0000028DF892BA1F04BDF892B89F07A
:1003200021968091000290910102C817D90734F3F9
:100330000F5F1F4F063011050CF4AFCF00E010E047
:10034000F9CFDF91CF911F910F91FF90EF9008951A
:10035000CF93DF937DC08091060290910702892B95
:1003600009F07BC08FEC97E00197F1F700C0000027
:10037000FADE892B09F471C01CDF892B09F46DC0EA
:1003800021968091000290910102C817D9071CF3B1
:1003900082E182B9C0E0D0E016C08091060290915F
:1003A0000702892B09F059C08FEC97E00197F1F70C
:1003B00000C00000D8DE892B09F44FC0FADE892B7B
:1003C00009F44BC021968091000290910102C81758
:1003D000D9071CF38CE082B9C0E0D0E013C0809153
:1003E000060290910702892BC1F58FEC97E00197E7
:1003F000F1F700C00000B7DE892B79F1DADE892B36
:1004000061F121968091000290910102C817D907ED
:1004100034F382E182B9C0E0D0E013C080910602DB
:1004200090910702892BC9F48FEC97E00197F1F7BF
:1004300000C0000098DE892B81F0BBDE892B69F0BB
:1004400021968091000290910102C817D90734F3D8
:1004500081E282B9C0E0D0E094CFDF91CF910895DE
:100460000F931F93CF93DF9337C022B181E090E0C9
:10047000002E02C0880F991F0A94E2F7822B82B9DE
:10048000C0E0D0E013C08091060290910702892B52
:1004900031F58FEC97E00197F1F700C0000063DEC3
:1004A000892BE9F086DE892BD1F02196809100021C
:1004B00090910102C817D90734F30F5F1F4F063020
:1004C00011059CF212B89FEF21EE84E0915020407C
:1004D0008040E1F700C0000000E010E0F0CFDF91C5
:1004E000CF911F910F9108958FE381B912B88AB10E
:1004F000887F8AB98BB187608BB9E9E6F0E08081AB
:10050000826080838DB381608DBB1CBA78948091AA
:10051000060290910702892BF1F0809102029091DE
:100520000302019729F4109203021092020206C0FE
:1005300081E090E090930302809302022FEF81EE1E
:1005400094E0215080409040E1F700C000001092FC
:100550000702109206028091020290910302892BF9
:10056000D1F012B88091040290910502813091057A
:1005700061F01CF4892B39F0CACF8230910539F033
:10058000039739F0C4CF3EDEC2CF80DEC0CFE0DEBD
:0E059000BECF66DFBCCF12B8BACFF894FFCF53
:02059E00F40166
:00000001FF
