S00B0000656A332E7372656317
S113000071C000008EC000008CC000008AC00000D7
S113001088C0000086C0000084C0000082C00000C8
S113002080C000007EC000007CC000007AC00000D8
S113003078C0000076C0000074C0000072C00000E8
S113004070C000006EC000006CC000006AC00000F8
S113005068C0000066C0000064C0000062C0000008
S113006060C000005EC000005CC000005AC0000018
S113007058C0000056C0000054C0000052C0000028
S113008050C000004EC000004CC000004AC0000038
S113009048C0000046C0000044C0000042C0000048
S11300A040C000003EC000003CC000003AC0000058
S11300B038C0000036C0000034C0000032C0000068
S11300C030C000002EC000002CC000002AC0000078
S11300D028C0000026C0000024C0000022C0000088
S11300E020C0000011241FBECFEFD1E2DEBFCDBF80
S11300F000E00CBF12E0A0E0B2E0EEE0F2E000E0CD
S11301000BBF02C007900D92A230B107D9F722E0CD
S1130110A2E0B2E001C01D92A630B207E1F762D0BE
S113012074C06ECF4A991CC08FE39CE90197F1F724
S113013000C000004A9B17C0809104029091050200
S1130140009739F421E030E0309305022093040253
S11301500895109205021092040280E090E0089540
S113016081E090E0089581E090E00895CF93DF93DB
S1130170C0E0D0E00DC0499908C08FE39CE9019725
S1130180F1F700C0000049992196CCDF892B29F0B2
S1130190CE3591E0D9077CF3FBCFCE01DF91CF912F
S11301A0089549991EC08FE39CE90197F1F700C0B7
S11301B00000499B16C08091040290910502892B8E
S11301C061F4D4DF2091000230910102820F931F69
S11301D090930102809300020895109203021092FA
S11301E0020208958FEF81B912B88AB1887F8AB963
S11301F0E9E6F0E08081826080838DB381608DBB0D
S11102001CBA7894CEDF8EDFFDCFF894FFCFCA
S105020E3200B8
S9030000FC
